:100000000C9497010C94BF010C94BF010C94BF0198
:100010000C94BF010C94BF010C94BF010C94BF0160
:100020000C94BF010C94BF010C94D0190C949E1831
:100030000C94BF010C94BF010C94BF010C94BF0140
:100040000C94BF010C9432090C94BF010C94BF01B5
:100050000C94BF010C94BF010C94BF010C941411BB
:100060000C94BF010C94D3150C9405160C94BF018D
:100070000C94BF010C94BF010C94BF010C94BF0100
:100080000C94BF010C94BF010C94BF010C94BF01F0
:100090000C94F60C0C94BF010C94BF010C94BF019E
:1000A0000C94BF010C94BF010C94BF0176088E081C
:1000B000B1078E0827088E088C0738078E088E082F
:1000C0008E088E088E0847068E081B078E08730759
:1000D0006C127112761280128A12D412D412D412B7
:1000E00094129E12A812B212BF12D412C712F512A5
:1000F000F812E712EB12F112191319131913FC126B
:10010000001304130A130E1319131413070605041E
:100110000100080A0B0C0D090000000200090F0085
:1001200000030401000C00000000000000000000BB
:100130000000000000000408020110408040102070
:10014000408040800802040180402010020110809D
:1001500010204040040404040403040502020202C7
:100160000403020202020606060606060404020250
:100170000204000000002300260029002C002F00AC
:1001800000000000250028002B002E003100000098
:100190000000240027002A002D003000080B000278
:1001A000020201000904000001020200000524000F
:1001B00010010524010101042402060524060001A2
:1001C0000705810310004009040100020A00000035
:1001D000070502024000000705830240000000C13D
:1001E0008081C112010002020000404123418000D1
:1001F0000101020001120100020000004041234100
:100200008000010102000141726475696E6F204C2B
:100210004C430041726475696E6F2059756E00041D
:1002200003090400000000000000002A2B28000041
:1002300000000000000000000000000000000000BE
:100240000000002C9EB4A0A1A2A434A6A7A5AE369F
:100250002D3738271E1F20212223242526B333B60D
:100260002EB7B89F8485868788898A8B8C8D8E8FE0
:10027000909192939495969798999A9B9C9D2F31E3
:1002800030A3AD350405060708090A0B0C0D0E0F47
:10029000101112131415161718191A1B1C1DAFB1C3
:1002A000B0B50009040200010300000009210101AA
:1002B00000012265000705840340000105010902D1
:1002C000A1010901A10085010509190129031500F2
:1002D00025019503750181029501750581030501CD
:1002E0000930093109381581257F75089503810684
:1002F000C0C005010906A1018502050719E029E72B
:100300001500250175019508810295017508810385
:1003100095067508150025650507190029658100F2
:10032000C000B505140C10116F143516C21B112432
:100330001FBECFEFDAE0DEBFCDBF12E0A0E0B1E03C
:10034000E2EAFBE302C005900D92A431B107D9F7B0
:1003500025E0A4E1B2E001C01D92A431B207E1F7AB
:1003600013E0CEE2D3E004C02297FE010E94421CBB
:10037000C232D107C9F70E9479160C94CF1D0C9494
:100380000000843028F4E82FF0E0E352FD4F608352
:1003900008951F93CF93DF93162F843008F06CC01D
:1003A000982F990F990F990F985F9F3108F09EE150
:1003B000D82FDD0FDD0FDD0F8D2FC0E041E0891755
:1003C000C8F4E82FF0E0DF01A554BD4F2C91223096
:1003D00070F4C42BEE0FFF1FE558FD4F21E030E015
:1003E000542F512311F420E030E031832083440F57
:1003F0008F5FE5CFC0FF05C0612F61708D2F0E9418
:100400005313C1FF06C0612F627081E08D0F0E94FF
:100410005313C2FF06C0612F647082E08D0F0E94EB
:100420005313C3FF06C0612F687083E08D0F0E94D5
:100430005313C4FF06C0612F607184E08D0F0E94CA
:100440005313C5FF06C0612F607285E08D0F0E94B7
:100450005313C6FF06C0612F607486E08D0F0E94A3
:100460005313C7FF09C0612F607887E08D0FDF91BC
:10047000CF911F910C945313DF91CF911F91089549
:100480008C30C0F44091E1025091E20221E030E072
:1004900002C0220F331F8A95E2F7672B29F42095BB
:1004A00030952423352302C0242B352B3093E202D0
:1004B0002093E1020895EF92FF920F931F93CF9341
:1004C000DF93EB018E3170F5082F10E0F801E55451
:1004D000FD4F9081933081F0943021F57801EE0C3E
:1004E000FF1C8C3038F4C701800F911F8C5E9D4F2C
:1004F0000E94CF0AF70112C0833051F09BEF980F92
:10050000923030F097EF980F933010F08D3019F44F
:10051000BE010E944612F801EE0FFF1FE558FD4F85
:10052000D183C083DF91CF911F910F91FF90EF9006
:1005300008951F93CF93DF93162FC82FD0E0FE01AD
:10054000E954FD4F90811923C752DD4F411103C07B
:100550009881911741F0412F50E0682F89EC93E08A
:100560000E94970F1883DF91CF911F910895CF9329
:10057000DF938091DD02882309F448C0D091B7024F
:10058000D0FF1DC180E00E948913892B09F417C197
:10059000C1E0D1FF06C081E00E948913892B09F0D8
:1005A00010C1D2FF06C082E00E948913892B09F096
:1005B0000AC1D3FF06C083E00E948913892B09F08A
:1005C00004C1D4FF06C084E00E948913892B09F07E
:1005D000FEC0D5FF06C085E00E948913892B09F073
:1005E000F8C0D6FF06C086E00E948913892B09F067
:1005F000F2C0D7FF06C087E00E948913892B09F05B
:10060000ECC040E06C2F80E00E9499028091DE02F5
:10061000882309F448C0D091B802D0FFE0C088E038
:100620000E948913892B09F4DAC0C1E0D1FF06C00A
:1006300089E00E948913892B09F0D3C0D2FF06C03C
:100640008AE00E948913892B09F0CDC0D3FF06C030
:100650008BE00E948913892B09F0C7C0D4FF06C024
:100660008CE00E948913892B09F0C1C0D5FF06C018
:100670008DE00E948913892B09F0BBC0D6FF06C00C
:100680008EE00E948913892B09F0B5C0D7FF06C000
:100690008FE00E948913892B09F0AFC040E06C2FD6
:1006A00081E00E9499028091DF02882309F448C00A
:1006B000D091B902D0FFA3C080E10E948913892B99
:1006C00009F49DC0C1E0D1FF06C081E10E948913F9
:1006D000892B09F096C0D2FF06C082E10E948913DF
:1006E000892B09F090C0D3FF06C083E10E948913D3
:1006F000892B09F08AC0D4FF06C084E10E948913C7
:10070000892B09F084C0D5FF06C085E10E948913BA
:10071000892B09F07EC0D6FF06C086E10E948913AE
:10072000892B09F078C0D7FF06C087E10E948913A2
:10073000892B09F072C040E06C2F82E00E94990280
:100740008091E002882309F476C0D091BA02D0FFEC
:1007500066C088E10E948913892B09F460C0C1E05A
:10076000D1FF06C089E10E948913892B09F059C085
:10077000D2FF06C08AE10E948913892B09F053C079
:10078000D3FF06C08BE10E948913892B09F04DC06D
:10079000D4FF06C08CE10E948913892B09F047C061
:1007A000D5FF06C08DE10E948913892B09F041C055
:1007B00040E06C2F83E0DF91CF910C949902C0E070
:1007C000E8CEC260EECEC460F4CEC860FACEC0619E
:1007D00000CFC06206CFC0640CCFC06812CFC0E0AB
:1007E00025CFC2602BCFC46031CFC86037CFC06186
:1007F0003DCFC06243CFC06449CFC0684FCFC0E097
:1008000062CFC26068CFC4606ECFC86074CFC06171
:100810007ACFC06280CFC06486CFC0688CCFC0E082
:100820009FCFC260A5CFC460ABCFC860B1CFC0615D
:10083000B7CFC062BDCFDF91CF91089510923A0239
:100840008FEF80930A0108958F929F92AF92BF928B
:10085000CF92DF92EF92FF920F931F93CF93DF938C
:10086000182FEB01E82EF12CC70185549D4F4C0148
:10087000FC0180815701AA0CBB1C863051F4809189
:100880003A02882331F06630710509F4D2C00E9423
:100890001E041C3070F4C430D10559F06501CE0C33
:1008A000DF1CC6018C5E9D4F6C010E94340B8111D0
:1008B000BCC00EEE010F0C3058F461E070E0C230A5
:1008C000D10511F060E070E0802F0E94400202C06C
:1008D0001E31D0F4E12FE695E695E695812F8770DD
:1008E000F0E0E954FD4F21E030E0082E01C0220F76
:1008F0000A94EAF7209721F48081822B808304C038
:100900002095808128232083F501E558FD4F118231
:100910001082C230D10579F02CF42097C9F02197CC
:1009200029F171C0C430D10509F445C064F126979E
:1009300009F461C068C00C3008F07FC060E0812F0E
:100940000E941A1360E0812F0E94531382E058C066
:100950001E3108F072C060E0812F0E941A1360E01F
:10096000812F0E945313F401108267C01E3108F0DA
:1009700064C060E0812F0E94531361E0812F0E94C8
:100980001A1381E03DC0133059F08BEF810F823094
:1009900038F087EF810F833018F01D3009F04DC01B
:1009A00061E0812F0E941A1360E070E0812F0E94A5
:1009B000461283E025C01C3008F03FC084E0F401FB
:1009C0008083E501CE0DDF1DCC5EDD4FCE010E94A0
:1009D000340B811132C0B701CE01DF91CF911F914D
:1009E0000F91FF90EF90DF90CF90BF90AF909F90CE
:1009F0008F900C94880A8EEF810F8230F0F486E09D
:100A0000F40180831AC068E171E089EC93E0DF9122
:100A1000CF911F910F91FF90EF90DF90CF90BF90FB
:100A2000AF909F908F900C940D10C6010E948E0A7B
:100A300040CF1C3008F432CF3CCFDF91CF911F91D3
:100A40000F91FF90EF90DF90CF90BF90AF909F906D
:100A50008F900895CF93C0E08EEF8C0F823028F4F2
:100A600066E070E08C2F0E942404CF5FCE31A1F7A6
:100A700081E080933A0289E093E0CF910C94DA0B05
:100A8000CF93DF9380913A0281110E941E04EDED15
:100A9000F2E0C7EBD2E0A9EDB2E0119219921D92FB
:100AA00082E0E13EF807C9F7C0E08EEE8C0F8C3093
:100AB00018F462E070E002C061E070E08C2F0E94E8
:100AC0002404CF5FCE3189F71092E2021092E10246
:100AD000DF91CF91089523E042E069E271E089EC73
:100AE00093E00E94D10E4BE552E060EE89EC93E07A
:100AF0000E941B1049EC51E060E989EC93E00E94F0
:100B00001B1040E452E060EC89EC93E00E941B1063
:100B100041EC51E060ED89EC93E00E941B1044E24F
:100B200054E064EF89EC93E00E941B1040E356E030
:100B300060EF89EC93E00E943E1040E455E06FEFD7
:100B400089EC93E00E94381026E040E051EE60E02E
:100B500070E08DE594E00E9471156DE574E089EC1C
:100B600093E00E94C50E0C944005CF93DF93C4E13F
:100B7000D2E0CE010E94EE09239682E0C833D80766
:100B8000C1F7DF91CF910895DF92EF92FF920F931B
:100B90001F93CF93DF93F82EEB01D42E6F3F8FEF8F
:100BA0007807B9F06F2D89E093E00E94F40B6C2F69
:100BB00089E093E00E949B0B89E093E00E94110C76
:100BC0008091380290913902009729F00E94B51166
:100BD00002C0C0E0D0E04D2D6F2D89E093E00E946F
:100BE000F10B0D2D10E089E093E00E94430B0817F4
:100BF0001907B1F4F0923B02C0933C026DE3E62E7C
:100C000062E0F62EC0E0D0E0C017D107CCF489E056
:100C100093E00E944B0BF70181937F012196F4CF63
:100C200089E093E00E94430B801791071CF464E471
:100C300071E002C06CE671E089EC93E00E940D1057
:100C400042E04D0D2BE332E067E789EC93E0DF9162
:100C5000CF911F910F91FF90EF90DF900C94C50FF3
:100C6000BF92CF92DF92EF92FF920F931F93CF9399
:100C7000DF93162FEA0190E0FC01E956F109E23119
:100C8000F10508F04BC2EA5AFF4F0C94401C8981D1
:100C9000982F987185FF03C063E971E05EC0888179
:100CA000983099F148F4911139C2682F89E093E0A6
:100CB0000E94F40B02E007C0903109F448C098315B
:100CC00009F475C02BC2011778F4FE01E00FF11D85
:100CD0008181608120E8829F6019112489E093E07E
:100CE0000E949B0B0E5FEFCF89E093E00E94110CF6
:100CF00086E490E0DF91CF911F910F91FF90EF90EC
:100D0000DF90CF90BF900C94B5119B816A81163013
:100D100061F42D814C8130E8239F40191124E0E8D3
:100D20009E9F6019112470E007C0462FF0E89F9F36
:100D3000401911246FEF7FEFDF91CF911F910F9139
:100D4000FF90EF90DF90CF90BF900C94C40520915E
:100D50000A0127307CF06FEB71E089EC93E0DF91C2
:100D6000CF911F910F91FF90EF90DF90CF90BF90A8
:100D70000C940D102F5F20930A01332727FD309527
:100D8000F901EE0FFF1FE20FF31FE55AFD4F8083BD
:100D90009B818A8120E8929F8019112481839D8103
:100DA0008C8130E8939F801911248283B7C16091B0
:100DB0000A01161634F470E0462F552747FD50956A
:100DC0000FC08FEF80930A01A9C1F901EE0FFF1F39
:100DD000E20FF31FE55AFD4F8083811123C07F5F2F
:100DE000272F30E04217530784F770E01BC078309C
:100DF000C0F49C012F5F3F4FD901AA0FBB1FA20F68
:100E0000B31FA55ABD4F2C91FC01EE0FFF1FE80F39
:100E1000F91FE55AFD4F20838C91818312968C91A6
:100E200082837F5F872F90E04817590704F761504E
:100E300060930A0173C128818981E0E88E9FC00117
:100E40001124820F911D009721F090933902809315
:100E5000380280913A02811161C1DF91CF911F91D7
:100E60000F91FF90EF90DF90CF90BF900C942A05E8
:100E7000653008F453C1F880E980DA80CB80BC800B
:100E8000FBE0FF1508F44AC10F2D10E0E801CC0F7C
:100E9000DD1FC00FD11FCC5EDD4FCE010E94340B91
:100EA000882319F0CE010E948E0A80E8B89E900136
:100EB00011242C0D311D90E8D99EA00111244E0D56
:100EC000511DB801CE010E940A0A64E070E08F2D26
:100ED000DF91CF911F910F91FF90EF90DF90CF9016
:100EE000BF900C942404623008F418C128818981D1
:100EF000E0E88E9FC0011124820F911D90930C0198
:100F000080930B010A970CF009C18AE090E090935E
:100F10000C0180930B0102C1623008F4FFC06981AB
:100F200070E0123091F08A81F0E88F9FC0011124A7
:100F3000682B792B133049F08B8190E090E4899FE6
:100F4000902D88271124682B792B8881DF91CF91F0
:100F50001F910F91FF90EF90DF90CF90BF900C9476
:100F60005B0260EF89EC93E00E9411106CE689EC63
:100F700093E00E941110C0E060E089EC93E00E94D1
:100F8000111061E089EC93E00E94111061E089EC9E
:100F900093E00E94111061E089EC93E00E9411102F
:100FA0008EEE8C0F8C3058F462E089EC93E00E9456
:100FB00011106AE089EC93E00E9411100DC0C3305B
:100FC00059F463E089EC93E00E94111068E089EC29
:100FD00093E00E9411100AC08BEF8C0F823088F3CF
:100FE00087EF8C0F833068F3CD3059F3CC3050F459
:100FF00064E089EC93E00E9411106EE089EC93E0CC
:101000000E9411108EEF8C0F823050F466E089EC54
:1010100093E00E94111061E089EC93E00E941110AE
:101020006FE789EC93E00E941110CF5FCE3109F099
:10103000A3CF67EF89EC93E0DF91CF911F910F91E0
:10104000FF90EF90DF90CF90BF900C94111066232B
:1010500009F464C0C88160EF89EC93E00E9411102C
:101060006EE689EC93E00E9411106C2F89EC93E0FE
:101070000E941110CE31E8F6D0E0FE01E554FD4F9C
:10108000608189EC93E00E941110CC0FDD1F8E016E
:1010900005581D4FF80160816F7789EC93E00E943D
:1010A0001110F80160817181CB018078892B49F0A2
:1010B000660F672F661F770B6F7789EC93E00E94AE
:1010C0001110C558DD4F68817981CB018827907C4C
:1010D000892B09F4AECF770F660B770F762F661F3B
:1010E0006F7789EC93E00E941110A3CF60EF89EC39
:1010F00093E00E9411106AE689EC93E00E941110BF
:10110000CEEECC3010F06FE701C06C2F89EC93E08D
:101110000E941110CF5FCC30A1F78BCFDF91CF9120
:101120001F910F91FF90EF90DF90CF90BF900895A7
:101130008F929F92AF92BF92CF92DF92EF92FF92E7
:101140000F931F93CF93DF930E94B70289EC93E034
:101150000E94230F892B29F089EC93E00E946110F3
:10116000F5CF0E945E1160937702709378028093AE
:10117000790290937A02C0907302D0907402E0904A
:101180007502F090760240910B0150910C014A01DA
:10119000AA2497FCA094BA2C8B019C010C191D0960
:1011A0002E093F0980169106A206B30608F04DC02D
:1011B000D501C4018C0D9D1DAE1DBF1D8093730212
:1011C00090937402A0937502B0937602CBEBD2E0B9
:1011D0001EEE1C30C0F488818230A9F42091E10217
:1011E0003091E202012E02C0359527950A94E2F76C
:1011F00020FF09C0812F0E941512AC01612F89ECDC
:1012000093E00E947E0F1F5F21961C3011F78091A2
:101210000A0187FD1AC0C0E08C2F90E020910A01DE
:10122000332727FD3095281739077CF0FC01EE0F96
:10123000FF1FE80FF91FE55AFD4F618170E0428101
:1012400080810E94C405CF5FE7CFDF91CF911F91CE
:101250000F91FF90EF90DF90CF90BF90AF909F9055
:101260008F9008951F920F920FB60F9211242F9313
:101270003F934F935F936F937F938F939F93AF931E
:10128000BF93EF93FF938091E40287FF05C0109214
:101290008500109284001AC02091E402332727FDB4
:1012A00030958091E30290E0281739077CF4809113
:1012B000E402992787FD9095FC01EE0FFF1FE80FD0
:1012C000F91FEB51FD4F808186FD15C08091E4022E
:1012D0008F5F8093E4022091E402332727FD30954D
:1012E0008091E30290E028173907BCF48091E40272
:1012F0008C305CF112C08091E402992787FD9095B3
:10130000FC01EE0FFF1FE80FF91FEB51FD4F80812D
:1013100060E08F730E945313D9CF80918400909125
:101320008500049680349C4918F480E49CE905C04B
:101330008091840090918500049690938900809319
:1013400088008FEF8093E40238C0209184003091B0
:1013500085008091E402992787FD9095FC01EE0FAE
:10136000FF1FE80FF91FEB51FD4F81819281820F22
:10137000931F90938900809388008091E4029927BD
:1013800087FD9095FC01EE0FFF1FE80FF91FEB5151
:10139000FD4F808186FF11C08091E402992787FD6F
:1013A0009095FC01EE0FFF1FE80FF91FEB51FD4F69
:1013B000808161E08F730E945313FF91EF91BF9181
:1013C000AF919F918F917F916F915F914F913F91DD
:1013D0002F910F900FBE0F901F9018952091E30250
:1013E0002C30A0F431E0320F3093E302FC01208373
:1013F000822F90E0FC01EE0FFF1FE80FF91FEB5169
:10140000FD4F88EB9BE09283818308952FEFFC01D1
:1014100020830895DF92EF92FF920F931F93CF9353
:10142000DF93EC01D62E7A01890188818C3008F097
:1014300066C061E08D2D0E941A138881A82FB0E04C
:10144000FD01EE0FFF1FEA0FFB1FEB51FD4F2D2D8E
:101450002F739081907C922B908360E272E06E19E2
:101460007F0977FF02C06D5F7F4F75956795759512
:101470006795698340E659E0401B510B57FF02C056
:101480004D5F5F4F55954795559547954A836CE05D
:101490000E94DF1B9CE0899FB001112420E030E016
:1014A000A901460F571FFA01EE0FFF1FE40FF51FAA
:1014B000EB51FD4F908196FD16C02F5F3F4F2C30B2
:1014C000310571F781110FC01092800082E0809386
:1014D00081001092850010928400B19A80916F0073
:1014E000826080936F00888190E0FC01EE0FFF1F07
:1014F000E80FF91FEB51FD4F808180648083888164
:10150000DF91CF911F910F91FF90EF90DF900895A1
:1015100020E639E040E252E00C940A0AFC018081A6
:1015200090E0FC01EE0FFF1FE80FF91FEB51FD4F9C
:1015300080818F7B80830895FC0180818C3070F5E1
:10154000918128E830E0291B310997FD3395220F5E
:10155000331F220F331F621773077CF0928128E537
:1015600032E0291B310997FD3395220F331F220FDB
:10157000331F621773070CF49B0122503109220FAD
:10158000331F4FB7F89490E0FC01EE0FFF1FE80FF8
:10159000F91FEB51FD4F328321834FBF08954F92C6
:1015A0005F926F927F92AF92BF92CF92DF92EF9253
:1015B000FF920F931F93CF93DF93EC01603282E091
:1015C00078070CF040C077FD06C0653B71052CF034
:1015D00064EB70E002C060E070E0898128E830E0F0
:1015E000281B310987FD3395220F331F220F331F2C
:1015F0005901CC24B7FCC094DC2C882777FD80955A
:10160000982F2A8148E552E0421B510927FD539546
:10161000440F551F440F551F2A01662457FC609440
:10162000762C7F926F925F924F9214EBE12EF12C09
:1016300000E010E020E030E0A9010E94441A0F9081
:101640000F900F900F90CE01DF91CF911F910F91CE
:10165000FF90EF90DF90CF90BF90AF907F906F9012
:101660005F904F900C949C0AFC01808190E0FC01FB
:10167000EE0FFF1FE80FF91FEB51FD4F808186FB36
:10168000882780F908958091390390E020913A03EA
:10169000821B9109089520913A03809139032817FC
:1016A00050F4E22FF0E0E55CFC4F808190E02F5F8A
:1016B00020933A0308958FEF9FEF0895E0913A0346
:1016C00080913903E81730F4F0E0E55CFC4F80814D
:1016D00090E008958FEF9FEF08950895CF92DF92E5
:1016E000EF92FF920F931F93CF93DF937C01CB0177
:1016F0008A0120911503222389F0EB016B01C40EAE
:10170000D51ECC15DD0569F06991D701ED91FC91ED
:101710000190F081E02DC7010995F3CF642F0E945D
:10172000CD0CC801DF91CF911F910F91FF90EF90E9
:10173000DF90CF900895CF93DF931F92CDB7DEB7A0
:101740006983209115032223D1F0209116032032C2
:1017500040F021E030E0FC013383228380E090E020
:1017600015C080911703E82FF0E0E85EFC4F9981E7
:1017700090838F5F809317038093160305C061E009
:10178000CE0101960E94CD0C81E090E00F90DF9198
:10179000CF910895FC011382128248EE53E060E07D
:1017A00070E0448355836683778384ED91E0918371
:1017B0008083089510923A03109239031092170310
:1017C000109216030C94180C862F413208F040E258
:1017D0006BE373E00E94360C10923A038093390356
:1017E000089521E00C94E40B81E08093150360934D
:1017F0003803109217031092160308950F93062FC3
:1018000021E04091160368E173E0809138030E9463
:101810007A0C1092170310921603109215030F9171
:10182000089561E00C94FE0B89E093E00C94CA0BE0
:101830001092C80381E08093C6031092C50361E053
:1018400082E00E94531361E083E00E945313E9EBAE
:10185000F0E080818E7F808380818D7F808388E42B
:101860008093B80085E48093BC000895413208F06D
:101870003FC09091C8039111FCCF91E09093C803B1
:101880002093C6032FEF20935B031092A003240F35
:1018900020939F039093C7039091C703880F892BD0
:1018A0008093C7038091C503813041F41092C50332
:1018B0008091C7038093BB0085EC01C085EE8093C7
:1018C000BC008091C8038130E1F38091A0038417AC
:1018D00010F44091A00321EA33E0FB01D9018A2FE3
:1018E000821B841718F48D918193F9CF842F08956A
:1018F00080E008950F93413208F046C09091C803EC
:101900009111FCCF92E09093C8030093C6039FEF20
:1019100090935B031092A00340939F03FB0161EA45
:1019200073E0DB019A2F961B941718F491919D9305
:10193000F9CF1092C7039091C703880F892B80932A
:10194000C7038091C503813041F41092C503809193
:10195000C7038093BB0085EC01C085EE8093BC007B
:10196000222321F08091C8038230E1F380915B0350
:101970008F3F61F080915B03803251F080915B0377
:10198000803341F483E007C081E005C080E003C0FC
:1019900082E001C084E00F910895613298F42091B3
:1019A000C803243089F460937D03FC018FE793E042
:1019B000DC012A2F281B261718F421912D93F9CF2B
:1019C00080E0089581E0089582E0089585ED809398
:1019D000BC008091BC0084FDFCCF1092C803089528
:1019E00085EC8093BC001092C80308951F920F925B
:1019F0000FB60F9211242F933F934F935F936F93E2
:101A00007F938F939F93AF93BF93EF93FF938091B7
:101A1000B900887F803609F49CC068F5883209F4E3
:101A20005BC090F4803109F454C038F4882309F481
:101A3000F5C0883009F44DC0F5C0883109F44CC0B8
:101A4000803209F45DC0EEC0803409F468C048F407
:101A5000803309F455C0883309F0E4C080935B03F8
:101A6000A8C0803509F44FC0883509F45DC08834BA
:101A700009F0D8C0D5C0883909F4C6C0A8F48837A1
:101A800009F467C038F4883609F463C0803709F474
:101A900060C0C8C0883809F4B7C0803909F45FC095
:101AA000803809F0BFC05BC0803B09F485C038F4C2
:101AB000803A09F466C0883A09F47EC0B3C0803C1D
:101AC00009F4A6C0883C09F4A3C0883B09F489C086
:101AD000A9C08091C70310C09091A00380919F037B
:101AE000981770F5E091A00381E08E0F8093A0031A
:101AF000F0E0EF55FC4F80818093BB0085EC85C002
:101B000080935B038DC0E091A00381E08E0F8093F2
:101B1000A0038091BB00F0E0EF55FC4F80839091D3
:101B2000A00380919F036DC0E091A00381E08E0F20
:101B30008093A0038091BB00F0E0EF55FC4F8083C1
:101B40008091C60381116CC081E08093C50384EA53
:101B500060C083E08093C80310925C03CFCF809174
:101B60005C03803208F050C0E0915C0381E08E0F8E
:101B700080935C038091BB00F0E0E35AFC4F8083CC
:101B8000BDCF80915C03803230F4E0915C03F0E0E3
:101B9000E35AFC4F10820E94E60C60915C0370E0F7
:101BA000E091C103F091C2038DE593E00995109295
:101BB0005C030E94F00C36C084E08093C80310924E
:101BC0007E0310927D03E091C303F091C403099555
:101BD00080917D03811105C081E080937D03109287
:101BE0007F03E0917E0381E08E0F80937E03F0E01F
:101BF000E158FC4F80818093BB0090917E038091DF
:101C00007D03981708F47ACF85E88093BC000AC05A
:101C100085EC8093BC001092C80304C010925B0353
:101C20000E94E60CFF91EF91BF91AF919F918F9130
:101C30007F916F915F914F913F912F910F900FBEC8
:101C40000F901F9018950F931F93CF93DF93EC0184
:101C50008B0188819981DC01ED91FC916F77019076
:101C6000F081E02D099588819981DC01ED91FC914D
:101C7000B801660F672F661F770B6F770190F081B1
:101C8000E02DDF91CF911F910F910994DC018D918F
:101C90009C91DC01ED91FC910190F081E02D60EFD1
:101CA0000994DC018D919C91DC01ED91FC910190F6
:101CB000F081E02D67EF0994CF93DF93EC018881E9
:101CC0009981DC01ED91FC910190F081E02D69EFAB
:101CD000099588819981DC01ED91FC910190F08159
:101CE000E02D62E0099588819981DC01ED91FC91FC
:101CF0000190F081E02D63E0DF91CF9109941F9373
:101D0000CF93DF93EC018A818823D9F1CE010E9421
:101D1000460E88819981DC01ED91FC910190F08162
:101D2000E02D69E7099588819981DC01ED91FC91AD
:101D3000AB81BC810190F081E02D6C910995888187
:101D40009981DC01ED91FC91AB81BC810190F08126
:101D5000E02D11966C91099512E08A81181758F4BC
:101D6000EB81FC81E10FF11D608170E0CE010E94EA
:101D7000230E1F5FF2CFCE01DF91CF911F910C9404
:101D8000510EDF91CF911F910895CF93DF93EC0116
:101D9000798368830E945C0ECE01DF91CF910C9411
:101DA0007F0EAF92BF92CF92DF92EF92FF920F938E
:101DB0001F93CF93DF93EC018B01A42EB22E60EE24
:101DC00071E0C8010E94B51D6C016FE270E0C801AE
:101DD0000E94AA1D01967C01C114D10441F0009714
:101DE00031F0C81AD90AC394C394CA8208C0F80152
:101DF00001900020E9F7E01BEF5FEA8378018B8117
:101E00009C810E940C1D0A8110E0C8010E94741C74
:101E10009C838B83DC01A00FB11F1C92FC01A0826C
:101E2000B1824A8150E042505109B7010296DF91D8
:101E3000CF911F910F91FF90EF90DF90CF90BF90C7
:101E4000AF900C949B1DDC018D919C91DC01ED9178
:101E5000FC910480F581E02D09941F93CF93DF93CB
:101E6000EC018885813741F08937B9F5CE01DF91E2
:101E7000CF911F910C947F0E8FA998AD892BD1F132
:101E800029A53AA5C901019797FDC901959587959F
:101E9000182F99270E94741C482FFC0121E03E2F27
:101EA000341B3117A0F4DE01A20FB11D18963C912E
:101EB000308351E0520FDE01A50FB11D18965C91E1
:101EC00060E8569F3019112431932E5FE8CFEFA9B7
:101ED000F8ADDF91CF911F910994E9ADFAAD30973C
:101EE00049F0AE01475F5F4F69A56150DF91CF9127
:101EF0001F910994DF91CF911F9108950F931F9324
:101F0000CF93DF93EC018A0188819981DC01ED9107
:101F1000FC916F70606E0190F081E02D0995B80121
:101F2000CE01DF91CF911F910F910C94230E0F934F
:101F30001F93CF93DF93EC018A0188819981DC01A3
:101F4000ED91FC916F7060690190F081E02D099531
:101F500088819981DC01ED91FC91602F6F77019070
:101F6000F081E02D099588819981DC01ED91FC914A
:101F7000B801660F672F661F770B0190F081E02D87
:101F8000DF91CF911F910F910994CF92DF92EF9241
:101F9000FF920F931F93CF93DF9300D01F92CDB783
:101FA000DEB78C01F42E2A833B8369830E94460EA0
:101FB000D8018D919C91DC01ED91FC910190F08113
:101FC000E02D698109952A81E22EC22E3B81D32E14
:101FD0008C2D8E198F1540F4F60161916F0170E020
:101FE000C8010E94230EF4CFC8010F900F900F90EC
:101FF000DF91CF911F910F91FF90EF90DF90CF90E5
:102000000C94510E9A01FA0101900020E9F73197E2
:10201000E41BF50B4E2F0C94C50FAB0161E70C943C
:102020000210DC018D919C91DC01ED91FC910190FD
:10203000F081E02D0994FC01603DA1F028F46039A5
:1020400059F0603C61F00895603E19F0643F69F01A
:10205000089554A743A7089556A745A7089550ABE0
:1020600047A7089552AB41AB089554AB43AB0895D5
:102070006F3F19F4FC0156AB45AB0895FC0152AF1C
:1020800041AF0895FC0115821682178280E090E02E
:10209000DF01A80FB91F18961C9201968032910596
:1020A000B9F710A612A611A605A8F6A9E02D30973B
:1020B00009F009940895FC011282148213820C9491
:1020C0004210CF93DF93EC0188819981DC01ED917F
:1020D000FC910680F781E02D099528A52223A1F027
:1020E000873F910531F418A6CE01DF91CF910C9472
:1020F0002D0F29A53AA5FE01E20FF31F80872F5F60
:102100003F4F3AA729A789C02D81222309F44CC04B
:10211000803891050CF048C09FEF920F9D83FE011F
:10212000E90FF11D8087911178C08E81882309F411
:1021300074C0803D79F138F48039B9F0803C91F574
:10214000EFA5F8A929C0803E19F0843FD9F02AC034
:10215000EBA5FCA5309731F18885698570E0B0E882
:102160008B9F600D711D11241BC0EDA5FEA530973E
:10217000C9F08885698570E090E8899F600D711DC0
:1021800011240EC0EBA9FCA9309761F0688570E0BE
:10219000898507C0E9A9FAA9309721F0688570E020
:1021A0008F8109951E8239C0803F91052CF4282F1C
:1021B0002F702F83807F9927803E910511F154F471
:1021C000803C910501F1803D9105E9F08039910550
:1021D00021F517C0843F9105A1F044F4803F91059B
:1021E000E1F481E088A71AA619A617C0893F9105D6
:1021F00071F08F3F910589F4CE01DF91CF910C945E
:10220000421092E001C091E09D838E8306C089EC6C
:1022100093E0DF91CF910C945C0EDF91CF91089504
:1022200089EC93E00C945B101F920F920FB60F9203
:1022300011242F933F938F939F93AF93BF938091DC
:10224000050490910604A0910704B0910804309110
:10225000040423E0230F2D3720F40196A11DB11DA6
:1022600005C026E8230F0296A11DB11D209304048A
:102270008093050490930604A0930704B093080488
:102280008091090490910A04A0910B04B0910C0470
:102290000196A11DB11D8093090490930A04A09397
:1022A0000B04B0930C04BF91AF919F918F913F911C
:1022B0002F910F900FBE0F901F9018952FB7F89485
:1022C00060910504709106048091070490910804C0
:1022D0002FBF08953FB7F8948091090490910A04A4
:1022E000A0910B04B0910C0426B5A89B05C02F3F0C
:1022F00019F00196A11DB11D3FBF6627782F892FC8
:102300009A2F620F711D811D911D42E0660F771F8C
:10231000881F991F4A95D1F70895CF92DF92EF92C7
:10232000FF92CF93DF936B017C010E946A11EB0156
:10233000C114D104E104F10489F00E948B1A0E94B7
:102340006A116C1B7D0B683E734090F381E0C81AE4
:10235000D108E108F108C851DC4FEACFDF91CF91F5
:10236000FF90EF90DF90CF900895019739F0880F9C
:10237000991F880F991F02970197F1F70895789494
:1023800084B5826084BD84B5816084BD85B582607A
:1023900085BD85B5816085BDEEE6F0E08081816018
:1023A0008083E1E8F0E01082808182608083808118
:1023B00081608083E0E8F0E0808181608083E1E9F2
:1023C000F0E0808182608083808181608083E0E9A9
:1023D000F0E0808181608083E1ECF0E080818460C6
:1023E0008083808182608083808181608083E3EC50
:1023F000F0E0808181608083E0ECF0E080818260A9
:102400008083E2ECF0E0808181608083EAE7F0E0A5
:10241000808184608083808182608083808181600C
:1024200080838081806880830895823108F08251A2
:10243000E82FF0E0E45FFE4FE49180917B00E3FB46
:10244000222720F930E095E0220F331F9A95E1F71B
:102450008F7D822B80937B00E77080910D0120E4BB
:10246000829FC0011124E82BE0937C0080917A00C8
:10247000806480937A0080917A0086FDFCCF809101
:1024800078002091790090E0922B08951F93CF93CC
:10249000DF93182FEB0161E00E941A13209711F4CB
:1024A00060E004C0CF3FD10539F461E0812FDF91B6
:1024B000CF911F910C945313E12FF0E0E85EFE4F93
:1024C000449150E0FA013197EF30F10508F06CC00B
:1024D000E859FF4F0C94401C84B5806884BDC7BD8B
:1024E00068C084B5806284BDC8BD63C0809180002F
:1024F000806880938000D0938900C093880059C081
:1025000080918000806280938000D0938B00C09384
:102510008A004FC080918000886080938000D093B3
:102520008D00C0938C0045C080919000806880939E
:102530009000D0939900C09398003BC08091900088
:10254000806280939000D0939B00C0939A0031C02A
:1025500080919000886080939000D0939D00C093FC
:102560009C0027C08091C00080688093C00080914B
:10257000C0008F7B8093C000C093CF001AC08091B1
:10258000C00080628093C000C093D00012C08091D0
:10259000C20088608093C2008091C2008B7F8093CC
:1025A000C200C093D20005C0C038D1050CF07DCF69
:1025B00077CFDF91CF911F91089590E0FC01319783
:1025C000EF30F105B0F5E958FF4F0C94401C8091B5
:1025D00080008F7703C0809180008F7D8093800082
:1025E000089580918000877FF9CF84B58F7702C0EE
:1025F00084B58F7D84BD0895809190008F7707C04A
:10260000809190008F7D03C080919000877F8093A0
:10261000900008958091C0008F7703C08091C00022
:102620008F7D8093C00008958091C200877F809342
:10263000C2000895CF93DF9390E0FC01EA5CFE4F67
:102640002491FC01EC5AFE4F8491882349F190E0DB
:10265000880F991FFC01E257FE4FA591B491805855
:102660009E4FFC01C591D4919FB7611108C0F894A9
:102670008C91209582238C93888182230AC06230BA
:1026800051F4F8948C91322F309583238C93888168
:10269000822B888304C0F8948C91822B8C939FBFEB
:1026A000DF91CF9108950F931F93CF93DF931F92E4
:1026B000CDB7DEB7282F30E0F901E85EFE4F8491F8
:1026C000F901EA5CFE4F1491F901EC5AFE4F0491B6
:1026D0000023C9F0882321F069830E94DD126981FB
:1026E000E02FF0E0EE0FFF1FE058FE4FA591B491F0
:1026F0009FB7F8948C91611103C01095812301C09C
:10270000812B8C939FBF0F90DF91CF911F910F91E1
:102710000895CF93DF93282F30E0F901E85EFE4F54
:102720008491F901EA5CFE4FD491F901EC5AFE4F15
:10273000C491CC2391F081110E94DD12EC2FF0E0C6
:10274000EE0FFF1FEE58FE4FA591B4912C912D2353
:1027500081E090E021F480E002C080E090E0DF9131
:10276000CF910895CF93DF931F92CDB7DEB76983E2
:10277000DC01ED91FC910280F381E02D41E050E01D
:10278000BE016F5F7F4F09950F90DF91CF91089544
:10279000CF93DF93EC018C859D8597FF05C082E088
:1027A0000E9473179D878C878C859D85DF91CF91C3
:1027B000089583E00C94C619FC018485958597FDE6
:1027C00006C082E00E941B1790E00196089582E007
:1027D0000E941B1790E00895FC018485958597FD64
:1027E00005C02FEF3FEF35872487089582E00C94D2
:1027F0007317CF93DF93EC0180911501882331F09B
:1028000083E00E94A4171816190634F081E090E0C6
:102810009B838A8380E090E0DF91CF910895FC0153
:1028200020812E5F208342E450E06CE971E080E873
:102830000C943F18FC0181819081913A59F48132C6
:1028400009F03CC047E050E06EE071E080E00E949B
:102850003F1843C0913291F5803239F467E070E05F
:102860008EE091E00E94701806C0823209F035C0F7
:1028700082818093150180910E0190910F01A091AA
:102880001001B0911101803B9440A105B105C1F444
:102890008091150180FD14C087E797E790930108A8
:1028A000809300082BE088E190E00FB6F894A8959B
:1028B000809360000FBE209360000FC080E00895F9
:1028C00088E10FB6F89480936000109260000FBE0C
:1028D000A895109201081092000881E008951092C6
:1028E000100410920F0488EE93E0A0E0B0E0809313
:1028F000110490931204A0931304B093140489EE6E
:1029000091E090930E0480930D048FEF9FEF9093CE
:102910001A04809319040895FC01818D228D90E0A2
:10292000805C9F4F821B910960E470E00E94EB1B6A
:102930000895FC01918D828D981731F0828DE80FFA
:10294000F11D858D90E008958FEF9FEF0895FC01B4
:10295000918D828D981761F0828DDF01A80FB11DD6
:102960005D968C91928D9F5F9F73928F90E00895FA
:102970008FEF9FEF08958BE296E1892B49F080E07D
:1029800090E0892B29F00E942B1681110C940000F5
:102990000895FC01848DDF01A80FB11DA35ABF4F1C
:1029A0002C91848D90E001968F739927848FA6894E
:1029B000B7892C93A089B1898C9180648C93938D75
:1029C000848D981306C00288F389E02D80818F7D65
:1029D00080830895CF93DF93EC01888D8823C9F01D
:1029E000EA89FB89808185FD05C0A889B9898C9118
:1029F00086FD0FC00FB607FCF5CF808185FFF2CFB3
:102A0000A889B9898C9185FFEDCFCE010E94C914A8
:102A1000E7CFDF91CF910895CF92DF92FF920F938E
:102A20001F93CF93DF931F92CDB7DEB76C01DC010C
:102A30005B969C915B975C968C915C97981307C012
:102A40005096ED91FC915197808185FD32C0F60141
:102A5000038D10E00F5F1F4F0F731127F02EF6014B
:102A6000848DF81211C00FB607FCF9CFD60150962D
:102A7000ED91FC915197808185FFF1CFC60169836B
:102A80000E94C9146981EBCF838DE80FF11DE35AD1
:102A9000FF4F6083D6015B960C935B975296ED9146
:102AA000FC91539780818062808381E058968C935B
:102AB0000DC0D6015696ED91FC91579760835096C4
:102AC000ED91FC91519780818064808381E090E05A
:102AD0000F90DF91CF911F910F91FF90DF90CF90DA
:102AE0000895BF92CF92DF92EF92FF92CF93DF9340
:102AF000EC016A017B01B22EE889F98982E08083CA
:102B0000411581EE580761057105A1F060E079E09B
:102B10008DE390E0A70196010E94FF1B215031092F
:102B2000410951095695479537952795211580E11B
:102B3000380798F0E889F989108260E874E88EE136
:102B400090E0A70196010E94FF1B21503109410925
:102B500051095695479537952795EC85FD85308326
:102B6000EE85FF852083188EEC89FD89B082EA8985
:102B7000FB89808180618083EA89FB89808188600C
:102B80008083EA89FB89808180688083EA89FB8968
:102B900080818F7D8083DF91CF91FF90EF90DF90D8
:102BA000CF90BF9008951F920F920FB60F921124ED
:102BB0002F938F939F93EF93FF93E0916D04F09188
:102BC0006E048081E0917304F091740482FD12C060
:102BD0009081809176048F5F8F73209177048217A4
:102BE00051F0E0917604F0E0E35AFB4F958F80932B
:102BF000760401C08081FF91EF919F918F912F9179
:102C00000F900FBE0F901F9018951F920F920FB646
:102C10000F9211242F933F934F935F936F937F9362
:102C20008F939F93AF93BF93EF93FF938DE594E0C2
:102C30000E94C914FF91EF91BF91AF919F918F9125
:102C40007F916F915F914F913F912F910F900FBEA8
:102C50000F901F9018958DE594E00E948C1421E050
:102C6000892B09F420E0822F0895109260041092BD
:102C70005F0488EE93E0A0E0B0E08093610490935D
:102C80006204A0936304B093640489EF91E090938D
:102C90005E0480935D048DEC90E090936A048093D1
:102CA00069048CEC90E090936C0480936B0488EC46
:102CB00090E090936E0480936D0489EC90E0909383
:102CC000700480936F048AEC90E090937204809378
:102CD00071048EEC90E090937404809373041092CE
:102CE0007604109277041092780410927904089573
:102CF00008950E94BF110E9478168AEF94E00E9406
:102D0000261A0E946B05CBEBD4E10E94980820970D
:102D1000E1F30E94BB14F9CFCF92DF92EF92FF92C2
:102D20000F931F93CF93DF936C017A01EB01E60EB3
:102D3000F71E00E010E0CE15DF0561F06991D601C5
:102D4000ED91FC910190F081E02DC6010995080FED
:102D5000191FF1CFC801DF91CF911F910F91FF9003
:102D6000EF90DF90CF9008954091FE045091FF04C2
:102D70002091FC043091FD0442175307B4F4909164
:102D8000E8009570E1F39091E80092FD19C08093FE
:102D9000F1008091FE049091FF0401968F739927B2
:102DA000892B19F48EEF8093E8008091FE049091B6
:102DB000FF0401969093FF048093FE0481E0089540
:102DC00080E00895FF920F931F93CF93DF938C01C0
:102DD00088E10E94B41683E00E94B416C0E0D0E0FF
:102DE000F801EC0FFD1F84910E94B416F82E80E0CC
:102DF0000E94B4168F2121F02196CB30D10581F7A6
:102E0000DF91CF911F910F91FF900895615030F0A5
:102E10002091F100FC0120830196F8CF289884E6E8
:102E20008093010508952FB7FC012083F894677003
:102E30006093E9000895CF93DF931F92CDB7DEB77B
:102E4000682FCE0101960E9413178091F20099819C
:102E50009FBF0F90DF91CF910895FF920F931F9323
:102E6000CF93DF9300D0CDB7DEB7F62E8A019091D5
:102E70000005992311F057FF03C08FEF9FEF2BC080
:102E8000682FCE0101967A830E9413178091F20079
:102E900090E0A8017A81801791070CF4AC01EF2D26
:102EA000F72FF40E84E6FE1639F02898809301057A
:102EB0009091F1009193F7CF4115510521F0809148
:102EC000F200882321F089818FBFCA0104C08BE6FC
:102ED0008093E800F8CF0F900F90DF91CF911F9172
:102EE0000F91FF900895CF93DF931F92CDB7DEB778
:102EF00041E050E0BE016F5F7F4F0E942D170197A8
:102F000019F4898190E002C08FEF9FEF0F90DF915D
:102F1000CF910895CF93DF931F92CDB7DEB7682F7F
:102F2000CE0101960E9413179091E800892F8072BC
:102F300095FF04C09091F20080E4891B99819FBFA6
:102F40000F90DF91CF9108956F927F928F929F9211
:102F5000AF92BF92CF92DF92EF92FF920F931F93A7
:102F6000CF93DF931F92CDB7DEB7782E7B01C42EAF
:102F7000B52E80910005882369F0042F152F8AEF64
:102F8000D82E872D8072982E9AE3A92E872D8074D3
:102F9000882E11C08FEF9FEF57C0872D0E948A1790
:102FA000682E81110CC0DA94A9F361E070E080E032
:102FB00090E00E948D110115110579F73BC0282F73
:102FC00030E0021713070CF4602E672DCE01019636
:102FD0000E9413178091E80085FF29C0262D30E05C
:102FE000021B130B992039F06A948FEF6816B1F029
:102FF0001092F100F9CFF701862D77FE07C08150BE
:1030000058F094919093F1003196F9CF815020F0CF
:1030100091919093F100FACFE20EF31E8091E800B7
:1030200085FF0FC00115110511F481100AC08981B7
:103030008FBFC1CF5D9884E6809302058C2D9B2DB8
:1030400003C0A092E800F3CF0F90DF91CF911F91C2
:103050000F91FF90EF90DF90CF90BF90AF909F9037
:103060008F907F906F9008951092E9001092FF0466
:103070001092FE049093FD048093FC040895CF9277
:10308000DF92FF920F931F93CF93DF9300D0CDB7C2
:10309000DEB7F82E8A016B0101151105B1F0F601BA
:1030A000F7FE02C0849101C0808149835A830E9447
:1030B000B41601501109FFEFCF1ADF0A49815A8176
:1030C0008111EACF8FEF9FEF01C0CA010F900F90DF
:1030D000DF91CF911F910F91FF90DF90CF900895D6
:1030E0001F93CF93DF931F92CDB7DEB7162F20919A
:1030F000E80022FFFCCF612F79830E9406178BEF37
:103100008093E800812F7981972F0F90DF91CF91E5
:103110001F910895CF93DF931F92CDB7DEB7198229
:10312000CE0101960E940F14CE0101960E94AA1AA8
:10313000898190E00F90DF91CF9108951F920F92B7
:103140000FB60F921124EF92FF920F931F932F93BC
:103150003F934F935F936F937F938F939F93AF931F
:10316000BF93EF93FF93CF93DF93CDB7DEB7629713
:10317000DEBFCDBF1092E9008091E80083FFE9C077
:1031800068E0CE010A960E94061782EF8093E8005D
:103190009A8597FF05C08091E80080FFFCCF03C0AF
:1031A0008EEF8093E800892F807609F0B7C08B8579
:1031B000811105C01092F1001092F100C3C0282FB8
:1031C0002D7F213009F4BEC0853049F48091E8009C
:1031D00080FFFCCF8C8580688093E300B3C086308D
:1031E00009F074C02D85E888F988223071F580E0F7
:1031F00090E02A8B0E9434180E948A1899E08E0170
:103200000F5F1F4FF801392F11923A95E9F7998313
:103210002A892A8391E09E8390E898879AEF99877C
:103220002091FE043091FF04275F3F4F3C832B83A6
:103230008D83C7010E94341849E050E0B80180E056
:103240000E943F180E948A187DC0C7012A8B0E94E5
:1032500034182A89223241F482E290E00E94B51AA1
:10326000892B09F06FC072C0213069F4888999896F
:10327000089711F42093FB048091FB04811116C080
:1032800065EF71E018C0233009F060C08C85882399
:1032900081F0823019F483E192E005C0813009F0B9
:1032A00055C087E092E00E94E2164AC063EE71E0EA
:1032B00002C06FE172E06115710509F447C0FB01BE
:1032C000449150E080E80E943F183CC0873009F4E8
:1032D0003DC0883021F481E08093F10033C0893013
:1032E00089F5937099F5EFEDF1E081E021E096E347
:1032F0008093E9002093EB0034913093EC0090939D
:10330000ED008F5F3196853099F78EE78093EA0064
:103310001092EA008C858093000514C088899989F1
:103320000E9434188E85811105C0CE010A960E9434
:103330001A1406C0823051F4CE010A960E94DD1A9A
:10334000882321F08EEF8093E80003C081E2809310
:10335000EB0062960FB6F894DEBF0FBECDBFDF91D3
:10336000CF91FF91EF91BF91AF919F918F917F91FD
:103370006F915F914F913F912F911F910F91FF900E
:10338000EF900F900FBE0F901F9018958093E9005B
:103390008091F200882319F08AE38093E800089571
:1033A0001F920F920FB60F9211242F933F934F93BA
:1033B0005F936F937F938F939F93AF93BF93EF939D
:1033C000FF938091E1001092E10083FF0FC0109203
:1033D000E90091E09093EB001092EC0092E390935F
:1033E000ED001092000598E09093F00082FF1DC060
:1033F00083E00E94C61980910205882339F08091EC
:103400000205815080930205882369F080910105AF
:10341000882359F080910105815080930105811125
:1034200004C0289A02C05D9AF1CFFF91EF91BF913D
:10343000AF919F918F917F916F915F914F913F914C
:103440002F910F900FBE0F901F90189510920005AE
:1034500081E08093D70080EA8093D80082E189BD23
:1034600009B400FEFDCF61E070E080E090E00E94D2
:103470008D1180E98093D8008CE08093E200109257
:10348000E000559A209A08954F925F926F927F9232
:10349000AF92BF92CF92DF92EF92FF920F931F9362
:1034A000CF93DF93CDB7DEB729013A01621B730BCF
:1034B000840B950B29893A894B895C892A193B0928
:1034C0004C095D09298B3A8B4B8B5C8B9B01AC01C2
:1034D00069897A898B899C890E94CF1BE418F50839
:1034E00006091709A80197010E94211C2A0D3B1DFE
:1034F0004C1D5D1DCA01B901DF91CF911F910F9144
:10350000FF90EF90DF90CF90BF90AF907F906F9043
:103510005F904F9008950895FF920F931F93CF935C
:10352000DF93EC01F62EE881F9810480F581E02D2E
:1035300009958C01E881F9810680F781E02D6F2DD6
:10354000CE010995C8019927DF91CF911F910F9165
:10355000FF900895FC0120812F5F208349E150E016
:1035600063EA72E080E80C943F1845E650E06CEBAB
:1035700072E080E80C943F18EF92FF920F931F9334
:10358000CF93DF931F92CDB7DEB789838B017A018A
:1035900041E050E0BE016F5F7F4F84E00E94A417BE
:1035A000A701B80184E40E94A4170F90DF91CF9186
:1035B0001F910F91FF90EF900895FC019181808100
:1035C000813A31F481E0913091F0933089F411C067
:1035D000813271F49B3021F482818093170105C000
:1035E0009A3031F482818093160181E00895089524
:1035F00080E0089548E050E082E00C94BC1ACF933C
:10360000DF93DC01683818F0E8E7E60F25C0E62F05
:10361000F0E067FF11C0E058F10981E090E001C0DF
:10362000880FEA95EAF714969C911497982B1496B4
:103630009C931497E0E010C0ED5DFD4FE491EE2304
:1036400009F440C0E7FF08C014968C91149782607B
:1036500014968C931497EF7716968C9116978E1775
:1036600041F117968C9117978E1719F118968C9136
:1036700018978E17F1F019968C9119978E17C9F03B
:103680001A968C911A978E17A1F01B968C911B9706
:103690008E1779F080E090E0ED01C80FD91F2E81E0
:1036A000211102C0EE8305C0019686309105A1F775
:1036B00009C0BD016C5F7F4FCD010E94FA1A81E005
:1036C00090E008C081E090E013969C938E9312974F
:1036D00080E090E0DF91CF910895683818F0E8E736
:1036E000E60F25C0E62FF0E067FF12C0E058F109B1
:1036F00021E030E001C0220FEA95EAF72095DC01D5
:1037000014963C911497322314963C93E0E00FC03A
:10371000ED5DFD4FE491EE2329F1E7FF08C0DC01E8
:1037200014962C9114972D7F14962C93EF7720E00C
:1037300030E0EE2351F0DC01A20FB31F16964C913E
:1037400016974E1302C016961C922F5F3F4F2630DD
:10375000310579F7BC016C5F7F4F0E94FA1A81E056
:1037600090E0089580E090E00895FC0116821782B1
:1037700010861186128613861482BC016C5F7F4FFF
:103780000C94FA1A10920F05109206051092050576
:1037900089E092E090930405809303050895DB018E
:1037A0008F939F930E94461CBF91AF91A29F800D63
:1037B000911DA39F900DB29F900D11240895991B08
:1037C00079E004C0991F961708F0961B881F7A9518
:1037D000C9F78095089597FB072E16F4009407D03B
:1037E00077FD09D00E94511C07FC05D03EF490954E
:1037F00081959F4F0895709561957F4F0895A1E23F
:103800001A2EAA1BBB1BFD010DC0AA1FBB1FEE1F5A
:10381000FF1FA217B307E407F50720F0A21BB30BA5
:10382000E40BF50B661F771F881F991F1A9469F721
:1038300060957095809590959B01AC01BD01CF017D
:103840000895052E97FB1EF400940E94381C57FD26
:1038500007D00E94FF1B07FC03D04EF40C94381CC9
:1038600050954095309521953F4F4F4F5F4F0895AC
:1038700090958095709561957F4F8F4F9F4F0895DC
:10388000EE0FFF1F0590F491E02D09940E94651C36
:10389000A59F900DB49F900DA49F800D911D1124A4
:1038A0000895AA1BBB1B51E107C0AA1FBB1FA61787
:1038B000B70710F0A61BB70B881F991F5A95A9F7D9
:1038C00080959095BC01CD010895A29FB001B39F52
:1038D000C001A39F700D811D1124911DB29F700D19
:1038E000811D1124911D0895CF93DF93823091059E
:1038F00010F482E090E0E0911205F091130520E0D1
:1039000030E0A0E0B0E0309739F1408151814817B4
:103910005907B8F04817590771F4828193811097BD
:1039200029F013969C938E9312972CC090931305B5
:103930008093120527C02115310531F04217530736
:1039400018F0A901DB0101C0EF019A01BD01DF01FF
:103950000280F381E02DD7CF21153105F9F0281B26
:10396000390B2430310580F48A819B816115710502
:1039700021F0FB019383828304C09093130580930D
:103980001205FE01329644C0FE01E20FF31F81933F
:10399000919322503109398328833AC02091100530
:1039A00030911105232B41F4209102013091030144
:1039B00030931105209310052091000130910101F1
:1039C0002115310541F42DB73EB7409104015091C6
:1039D0000501241B350BE0911005F0911105E2174C
:1039E000F307A0F42E1B3F0B2817390778F0AC0122
:1039F0004E5F5F4F2417350748F04E0F5F1F5093FF
:103A00001105409310058193919302C0E0E0F0E02E
:103A1000CF01DF91CF910895CF93DF93009709F401
:103A200087C0FC01329713821282C0911205D09197
:103A30001305209781F420813181280F391F80914F
:103A40001005909111058217930779F5F0931105F0
:103A5000E09310056DC0DE0120E030E0AE17BF0737
:103A600050F412964D915C9113979D0141155105AB
:103A700009F1DA01F3CFB383A28340815181840F2E
:103A8000951F8A179B0771F48D919C911197840F54
:103A9000951F02969183808312968D919C91139726
:103AA000938382832115310529F4F0931305E09364
:103AB00012053EC0D9011396FC93EE9312974D91D7
:103AC0005D91A40FB51FEA17FB0779F480819181FE
:103AD000840F951F0296D90111969C938E93828133
:103AE000938113969C938E931297E0E0F0E08A8185
:103AF0009B81009719F0FE01EC01F9CFCE010296EF
:103B000028813981820F931F209110053091110572
:103B10002817390769F4309729F410921305109289
:103B2000120502C013821282D0931105C0931005B2
:103B3000DF91CF910895FB01DC014150504048F0E6
:103B400001900D920020C9F701C01D9241505040D4
:103B5000E0F70895FC0181E090E00190061609F479
:103B6000CF010020D1F701970895FB015191552312
:103B7000A9F0BF01DC014D9145174111E1F759F45E
:103B8000CD010190002049F04D9140154111C9F33C
:103B9000FB014111EFCF81E090E001970895F89487
:023BA000FFCF55
:103BA20000001405800001000000FF13000100E185
:103BB2000000000000000101556E6B6E6F776E20F1
:103BC20070696E206D6F6465005374616E6461721A
:103BD200644669726D617461466F72415448302E59
:103BE200696E6F00493243205265616420457272EA
:103BF2006F723A20546F6F206D616E792062797412
:103C02006573207265636569766564004932432095
:103C120052656164204572726F723A20546F6F2050
:103C2200666577206279746573207265636569766B
:103C320065640031302D6269742061646472657359
:103C420073696E67206D6F6465206973206E6F748F
:103C52002079657420737570706F72746564007476
:103C62006F6F206D616E7920717565726965730081
:103C7200000000009B0B6E0B430B4B0B5E0B6D0B9E
:103C82002E6370700000000000B213F913DC13EC15
:103C920013C813D913000000000C158C168C14A73E
:103CA200149914EA14000000008C1A8C16FF1A6D85
:043CB2001BB51B0023
:00000001FF
